{
  "_format": "hh-sol-artifact-1",
  "contractName": "CashlinkEscrow",
  "sourceName": "contracts/CashlinkEscrow.sol",
  "abi": [
    {
      "inputs": [
        {
          "internalType": "address",
          "name": "_token",
          "type": "address"
        }
      ],
      "stateMutability": "nonpayable",
      "type": "constructor"
    },
    {
      "inputs": [],
      "name": "ReentrancyGuardReentrantCall",
      "type": "error"
    },
    {
      "anonymous": false,
      "inputs": [
        {
          "indexed": true,
          "internalType": "bytes32",
          "name": "hash",
          "type": "bytes32"
        },
        {
          "indexed": true,
          "internalType": "address",
          "name": "claimer",
          "type": "address"
        }
      ],
      "name": "CashlinkClaimed",
      "type": "event"
    },
    {
      "anonymous": false,
      "inputs": [
        {
          "indexed": true,
          "internalType": "bytes32",
          "name": "hash",
          "type": "bytes32"
        },
        {
          "indexed": true,
          "internalType": "address",
          "name": "creator",
          "type": "address"
        },
        {
          "indexed": false,
          "internalType": "uint256",
          "name": "amount",
          "type": "uint256"
        }
      ],
      "name": "CashlinkCreated",
      "type": "event"
    },
    {
      "anonymous": false,
      "inputs": [
        {
          "indexed": true,
          "internalType": "bytes32",
          "name": "hash",
          "type": "bytes32"
        },
        {
          "indexed": true,
          "internalType": "address",
          "name": "creator",
          "type": "address"
        }
      ],
      "name": "CashlinkRevoked",
      "type": "event"
    },
    {
      "inputs": [
        {
          "internalType": "bytes32",
          "name": "",
          "type": "bytes32"
        }
      ],
      "name": "cashlinks",
      "outputs": [
        {
          "internalType": "address",
          "name": "creator",
          "type": "address"
        },
        {
          "internalType": "uint256",
          "name": "amount",
          "type": "uint256"
        },
        {
          "internalType": "bool",
          "name": "claimed",
          "type": "bool"
        }
      ],
      "stateMutability": "view",
      "type": "function"
    },
    {
      "inputs": [
        {
          "internalType": "string",
          "name": "claimCode",
          "type": "string"
        }
      ],
      "name": "claim",
      "outputs": [],
      "stateMutability": "nonpayable",
      "type": "function"
    },
    {
      "inputs": [
        {
          "internalType": "uint256",
          "name": "amount",
          "type": "uint256"
        },
        {
          "internalType": "bytes32",
          "name": "claimHash",
          "type": "bytes32"
        }
      ],
      "name": "createCashlink",
      "outputs": [],
      "stateMutability": "nonpayable",
      "type": "function"
    },
    {
      "inputs": [
        {
          "internalType": "bytes32",
          "name": "claimHash",
          "type": "bytes32"
        }
      ],
      "name": "revoke",
      "outputs": [],
      "stateMutability": "nonpayable",
      "type": "function"
    },
    {
      "inputs": [],
      "name": "token",
      "outputs": [
        {
          "internalType": "contract IERC20",
          "name": "",
          "type": "address"
        }
      ],
      "stateMutability": "view",
      "type": "function"
    }
  ],
  "bytecode": "0x60a060405234801561001057600080fd5b5060405161130738038061130783398181016040528101906100329190610146565b6001600081905550600073ffffffffffffffffffffffffffffffffffffffff168173ffffffffffffffffffffffffffffffffffffffff16036100a9576040517f08c379a00000000000000000000000000000000000000000000000000000000081526004016100a0906101d0565b60405180910390fd5b8073ffffffffffffffffffffffffffffffffffffffff1660808173ffffffffffffffffffffffffffffffffffffffff1681525050506101f0565b600080fd5b600073ffffffffffffffffffffffffffffffffffffffff82169050919050565b6000610113826100e8565b9050919050565b61012381610108565b811461012e57600080fd5b50565b6000815190506101408161011a565b92915050565b60006020828403121561015c5761015b6100e3565b5b600061016a84828501610131565b91505092915050565b600082825260208201905092915050565b7f496e76616c696420746f6b656e20616464726573730000000000000000000000600082015250565b60006101ba601583610173565b91506101c582610184565b602082019050919050565b600060208201905081810360008301526101e9816101ad565b9050919050565b6080516110e7610220600039600081816101a60152818161050b01528181610752015261084601526110e76000f3fe608060405234801561001057600080fd5b50600436106100575760003560e01c8063310bb0751461005c578063b75c7dc614610078578063d5a813e014610094578063f3fe12c9146100c6578063fc0c546a146100e2575b600080fd5b61007660048036038101906100719190610938565b610100565b005b610092600480360381019061008d9190610978565b610399565b005b6100ae60048036038101906100a99190610978565b6105f9565b6040516100bd93929190610a10565b60405180910390f35b6100e060048036038101906100db9190610b8d565b610650565b005b6100ea610844565b6040516100f79190610c35565b60405180910390f35b610108610868565b6000821161014b576040517f08c379a000000000000000000000000000000000000000000000000000000000815260040161014290610cad565b60405180910390fd5b60006001600083815260200190815260200160002060010154146101a4576040517f08c379a000000000000000000000000000000000000000000000000000000000815260040161019b90610d19565b60405180910390fd5b7f000000000000000000000000000000000000000000000000000000000000000073ffffffffffffffffffffffffffffffffffffffff166323b872dd3330856040518463ffffffff1660e01b815260040161020193929190610d39565b6020604051808303816000875af1158015610220573d6000803e3d6000fd5b505050506040513d601f19601f820116820180604052508101906102449190610d9c565b610283576040517f08c379a000000000000000000000000000000000000000000000000000000000815260040161027a90610e15565b60405180910390fd5b60405180606001604052803373ffffffffffffffffffffffffffffffffffffffff168152602001838152602001600015158152506001600083815260200190815260200160002060008201518160000160006101000a81548173ffffffffffffffffffffffffffffffffffffffff021916908373ffffffffffffffffffffffffffffffffffffffff1602179055506020820151816001015560408201518160020160006101000a81548160ff0219169083151502179055509050503373ffffffffffffffffffffffffffffffffffffffff16817f808bc0c5afb4951567906d486355a9f47b261d783c6745649c50166e45bf5f55846040516103859190610e35565b60405180910390a36103956108ae565b5050565b6103a1610868565b600060016000838152602001908152602001600020905060008160010154116103ff576040517f08c379a00000000000000000000000000000000000000000000000000000000081526004016103f690610e9c565b60405180910390fd5b8060020160009054906101000a900460ff1615610451576040517f08c379a000000000000000000000000000000000000000000000000000000000815260040161044890610f08565b60405180910390fd5b3373ffffffffffffffffffffffffffffffffffffffff168160000160009054906101000a900473ffffffffffffffffffffffffffffffffffffffff1673ffffffffffffffffffffffffffffffffffffffff16146104e3576040517f08c379a00000000000000000000000000000000000000000000000000000000081526004016104da90610f74565b60405180910390fd5b60008160010154905060018260020160006101000a81548160ff0219169083151502179055507f000000000000000000000000000000000000000000000000000000000000000073ffffffffffffffffffffffffffffffffffffffff1663a9059cbb33836040518363ffffffff1660e01b8152600401610564929190610f94565b6020604051808303816000875af1158015610583573d6000803e3d6000fd5b505050506040513d601f19601f820116820180604052508101906105a79190610d9c565b503373ffffffffffffffffffffffffffffffffffffffff16837fd05891cd57e9e2a56a94e47205132006d19ab14a56f03f4cc1d285787064ed5260405160405180910390a350506105f66108ae565b50565b60016020528060005260406000206000915090508060000160009054906101000a900473ffffffffffffffffffffffffffffffffffffffff16908060010154908060020160009054906101000a900460ff16905083565b610658610868565b60008160405160200161066b919061102e565b604051602081830303815290604052805190602001209050600060016000838152602001908152602001600020905060008160010154116106e1576040517f08c379a00000000000000000000000000000000000000000000000000000000081526004016106d890611091565b60405180910390fd5b8060020160009054906101000a900460ff1615610733576040517f08c379a000000000000000000000000000000000000000000000000000000000815260040161072a90610f08565b60405180910390fd5b60018160020160006101000a81548160ff0219169083151502179055507f000000000000000000000000000000000000000000000000000000000000000073ffffffffffffffffffffffffffffffffffffffff1663a9059cbb3383600101546040518363ffffffff1660e01b81526004016107af929190610f94565b6020604051808303816000875af11580156107ce573d6000803e3d6000fd5b505050506040513d601f19601f820116820180604052508101906107f29190610d9c565b503373ffffffffffffffffffffffffffffffffffffffff16827fbf04d775c0addea9c8481af4a4d0870898628e2bcd625f44b3cf4ae541d7c45d60405160405180910390a350506108416108ae565b50565b7f000000000000000000000000000000000000000000000000000000000000000081565b6002600054036108a4576040517f3ee5aeb500000000000000000000000000000000000000000000000000000000815260040160405180910390fd5b6002600081905550565b6001600081905550565b6000604051905090565b600080fd5b600080fd5b6000819050919050565b6108df816108cc565b81146108ea57600080fd5b50565b6000813590506108fc816108d6565b92915050565b6000819050919050565b61091581610902565b811461092057600080fd5b50565b6000813590506109328161090c565b92915050565b6000806040838503121561094f5761094e6108c2565b5b600061095d858286016108ed565b925050602061096e85828601610923565b9150509250929050565b60006020828403121561098e5761098d6108c2565b5b600061099c84828501610923565b91505092915050565b600073ffffffffffffffffffffffffffffffffffffffff82169050919050565b60006109d0826109a5565b9050919050565b6109e0816109c5565b82525050565b6109ef816108cc565b82525050565b60008115159050919050565b610a0a816109f5565b82525050565b6000606082019050610a2560008301866109d7565b610a3260208301856109e6565b610a3f6040830184610a01565b949350505050565b600080fd5b600080fd5b6000601f19601f8301169050919050565b7f4e487b7100000000000000000000000000000000000000000000000000000000600052604160045260246000fd5b610a9a82610a51565b810181811067ffffffffffffffff82111715610ab957610ab8610a62565b5b80604052505050565b6000610acc6108b8565b9050610ad88282610a91565b919050565b600067ffffffffffffffff821115610af857610af7610a62565b5b610b0182610a51565b9050602081019050919050565b82818337600083830152505050565b6000610b30610b2b84610add565b610ac2565b905082815260208101848484011115610b4c57610b4b610a4c565b5b610b57848285610b0e565b509392505050565b600082601f830112610b7457610b73610a47565b5b8135610b84848260208601610b1d565b91505092915050565b600060208284031215610ba357610ba26108c2565b5b600082013567ffffffffffffffff811115610bc157610bc06108c7565b5b610bcd84828501610b5f565b91505092915050565b6000819050919050565b6000610bfb610bf6610bf1846109a5565b610bd6565b6109a5565b9050919050565b6000610c0d82610be0565b9050919050565b6000610c1f82610c02565b9050919050565b610c2f81610c14565b82525050565b6000602082019050610c4a6000830184610c26565b92915050565b600082825260208201905092915050565b7f416d6f756e74206d7573742062652067726561746572207468616e207a65726f600082015250565b6000610c97602083610c50565b9150610ca282610c61565b602082019050919050565b60006020820190508181036000830152610cc681610c8a565b9050919050565b7f436173686c696e6b20616c726561647920657869737473000000000000000000600082015250565b6000610d03601783610c50565b9150610d0e82610ccd565b602082019050919050565b60006020820190508181036000830152610d3281610cf6565b9050919050565b6000606082019050610d4e60008301866109d7565b610d5b60208301856109d7565b610d6860408301846109e6565b949350505050565b610d79816109f5565b8114610d8457600080fd5b50565b600081519050610d9681610d70565b92915050565b600060208284031215610db257610db16108c2565b5b6000610dc084828501610d87565b91505092915050565b7f546f6b656e207472616e73666572206661696c65640000000000000000000000600082015250565b6000610dff601583610c50565b9150610e0a82610dc9565b602082019050919050565b60006020820190508181036000830152610e2e81610df2565b9050919050565b6000602082019050610e4a60008301846109e6565b92915050565b7f496e76616c696420636173686c696e6b00000000000000000000000000000000600082015250565b6000610e86601083610c50565b9150610e9182610e50565b602082019050919050565b60006020820190508181036000830152610eb581610e79565b9050919050565b7f416c726561647920636c61696d65640000000000000000000000000000000000600082015250565b6000610ef2600f83610c50565b9150610efd82610ebc565b602082019050919050565b60006020820190508181036000830152610f2181610ee5565b9050919050565b7f4e6f742063726561746f72000000000000000000000000000000000000000000600082015250565b6000610f5e600b83610c50565b9150610f6982610f28565b602082019050919050565b60006020820190508181036000830152610f8d81610f51565b9050919050565b6000604082019050610fa960008301856109d7565b610fb660208301846109e6565b9392505050565b600081519050919050565b600081905092915050565b60005b83811015610ff1578082015181840152602081019050610fd6565b60008484015250505050565b600061100882610fbd565b6110128185610fc8565b9350611022818560208601610fd3565b80840191505092915050565b600061103a8284610ffd565b915081905092915050565b7f496e76616c696420636c61696d20636f64650000000000000000000000000000600082015250565b600061107b601283610c50565b915061108682611045565b602082019050919050565b600060208201905081810360008301526110aa8161106e565b905091905056fea26469706673582212205a30a204944128a01a7277ccfe86492028738f0854ae9822f840fa9f63de2cf364736f6c634300081c0033",
  "linkReferences": {},
  "deployedLinkReferences": {}
}